:020000040800F2
:1000000028D7002045010008C7210008AD1A0008C4
:10001000C5210008390E0008653A000800000000FC
:100020000000000000000000000000007F2C00081D
:10003000D91100080000000059220008C12D000855
:100040005F0100085F0100085F0100084926000801
:100050005F0100085F0100085F0100085F01000800
:100060005F0100085F0100085F0100085F010008F0
:100070005F0100085F0100085F0100085F010008E0
:100080005F0100085F0100085F0100085F010008D0
:100090005F0100085F0100085F01000839140008D3
:1000A0005F0100085F0100085F0100085F010008B0
:1000B0009B2E0008A52F0008153000085F010008DE
:1000C0005F0100085F0100085F0100085F01000890
:1000D0005F0100085F010008A93700085F01000800
:1000E000291200085F0100085F0100085F01000895
:1000F0005F0100085F0100085F0100085F01000860
:100100005F0100085F010008AD3100085F010008D1
:100110005F0100085F0100085F0100085F0100083F
:100120005F0100085F0100085F0100085F0100082F
:10013000DFF80CD000F0B8FB0048004799530008E6
:1001400028D700200648804706480047FEE7FEE71C
:10015000FEE7FEE7FEE7FEE7FEE7FEE7FEE7FEE777
:10016000C52D000831010008A0F14101192900D86E
:100170002030704740EA01039B0703D009E008C91B
:10018000121F08C0042AFAD203E011F8013B00F85C
:10019000013B521EF9D27047D2B201E000F8012BA8
:1001A000491EFBD270470022F6E710B513460A46F7
:1001B00004461946FFF7F0FF204610BD30B505464E
:1001C0002A460B4612F8010B13F8014B08B1A04266
:1001D000F8D01CB1002802D06D1CF1E7284630BDD4
:1001E000421C10F8011B0029FBD1801A704730B562
:1001F00005460020034600E05B1C934205D2EC5C00
:10020000C85C201A01D1002CF6D130BD2DE9FE4F7B
:10021000804681EA0300C00F0C46009021F00041A7
:1002200023F00045B8EB0200A94105D24046214623
:1002300090461C460B46024623F00040104347D030
:10024000270DC7F30A00C3F30A510290401A019028
:1002500040286BDAC3F3130040F4801B00989246E9
:1002600020B10023D2EB030A63EB0B0B0198594634
:10027000C0F14002504600F022FA06460D465046B4
:100280005946019A00F03AFA10EB08006141002447
:1002900087EA115284EAE7731A4340D0009A62B3A6
:1002A000019A012A4FEA075215DC001B61EB02019B
:1002B0004FF0004202EA0752CDE90042001C41F52E
:1002C000801132462B4600F071FA03B0BDE8F08F82
:1002D00040462146F9E7001B61EB0201001C41F595
:1002E000801300185B412018A2F5001747EB0301AB
:1002F00040EAD570B6196D4111E06D084FEA360637
:1003000045EAC0754FEA0752001B61EB0201001C71
:1003100041F5801149084FEA300000195141324639
:100320002B4603B0BDE8F04F00F031BA009801222F
:1003300040000023D0EB020263EBE07300982146FB
:100340004FEAE074B8EB000061EB0401E9E783F0E9
:1003500000435BE781F0004158E72DE9FE4F81EA59
:10036000030404F0004421F0004100944FF0000B1E
:1003700023F0004350EA01045ED052EA03045BD04C
:10038000C3F30A54C1F30A552C44A4F2F334019484
:10039000A0FB0254C1F3130141F48011C3F3130312
:1003A00043F4801301FB024400FB034E840A970AC6
:1003B00044EA815447EA8357A4FB076802958D0AF3
:1003C00005FB07854FEA932C04FB0C542705029D7F
:1003D0004FEA065847EA1637B5EB08056EEB070CEF
:1003E000870E920E47EA811742EA8312A7FB0201A9
:1003F000B6EB0B0164EB00042B0D43EA0C335E18E3
:1004000044EB1C50DA465146E7FB0201C5F31304E6
:100410004FEA0B3343EA14534FEA0432019C43EA98
:100420000603A4F10C040294009CCDE900B400F092
:10043000BDF903B0BDE8F08F00200146F9E72DE9D2
:10044000F04D81EA030404F0004B21F0004514460E
:100450004FF0000A23F0004150EA050220D054EA90
:1004600001021DD0C5F30A570246C5F31303C1F3B9
:100470001300C1F30A5640F4801543F48013A7EB30
:100480000608101BD64608F2FD3873EB050002D3B0
:1004900008F1010801E092185B41B8F1000F03DA9E
:1004A00000200146BDE8F08D00204FF48011064683
:1004B00084460EE0171B73EB050705D3121B63EB95
:1004C000050306434CEA010C49084FEA3000921834
:1004D0005B4150EA0107EDD152EA030012D082EAF3
:1004E000040083EA0501084305D0101BAB4106D286
:1004F0000122002306E000224FF0004302E06FF0EB
:10050000010253101AEB06004CEB085110EB0A00E5
:1005100041EB0B01BDE8F04D00F039B9C10F80EAA5
:10052000E0700844CA079623002100F002B90EB516
:10053000C10F80EAE0700844CA07002140F233434B
:100540008DE80E000A460B4600F030F903B000BDFE
:100550000EB540F2334102910021CDE900110A4667
:100560000B4600F023F903B000BD70B5C1F30A5289
:1005700001F000450024C1F3130140F2FF3341F4C0
:1005800080119A4201DA002070BD40F233439A4252
:10059000A2F2334203DC524200F0A0F800E09040A7
:1005A0002C43F1D0404270BD00F0004230F00040DA
:1005B0000AD0C10D01F56071C0F3160042EA015185
:1005C000C2084007114370470020014670470000F1
:1005D00030B5041E71F1000404DB4FF000444042CA
:1005E00064EB0101141E73F1000405DB1C464FF09F
:1005F0000043524263EB04038B4208BF824230BD8A
:1006000030B5041E71F1000404DB4FF00044404299
:1006100064EB0101141E73F1000405DB1C464FF06E
:100620000043524263EB0403994208BF904230BD3D
:1006300030B50B46014600202022012409E021FAB2
:1006400002F59D4205D303FA02F5491B04FA02F5AF
:100650002844151EA2F10102F1DC30BD2DE9F05F46
:100660000546002092469B46884606468146402421
:100670001BE0284641464746224600F02FF85346E5
:100680005A46C01A914110D311461846224600F02E
:1006900016F82D1A67EB01084F462246012000216B
:1006A00000F00DF817EB00094E41201EA4F10104E3
:1006B000DFDC484631462A464346BDE8F09F202A03
:1006C00004DB203A00FA02F1002070479140C2F1A9
:1006D000200320FA03F3194390407047202A04DBDB
:1006E000203A21FA02F00021704721FA02F3D040AB
:1006F000C2F120029140084319467047202A06DBC8
:10070000CB17203A41FA02F043EAE07306E041FADF
:1007100002F3D040C2F120029140084319467047CD
:100720000029A8BF7047401C490008BF20F0010005
:10073000704710B4B0FA80FC00FA0CF050EA0104E3
:1007400004BF10BC704749B1CCF1200421FA04F475
:1007500011FA0CF118BF012121430843A3EB0C014E
:10076000CB1D4FEA00614FEA102042BF002010BCB1
:10077000704700EBC35010440029A4BF10BC704761
:10078000401C490008BF20F0010010BC704710B5A4
:10079000141E73F1000408DA401C41F100019218A4
:1007A0005B411A4301D120F0010010BD2DE9F04D4D
:1007B00092469B4611B1B1FA81F202E0B0FA80F2A2
:1007C00020329046FFF77BFF04460F4640EA0A00BE
:1007D00041EA0B0153465A46084313D0114653EAE7
:1007E000010019D0C8F140025046FFF777FF0546D7
:1007F0000E46504659464246FFF761FF084305D072
:10080000012004E020463946BDE8F08D0020054374
:1008100046EAE0762C4337430A986305E40AA0EBE6
:1008200008000022FD0A44EA47540A3002D500209D
:100830000146E9E7010510196941DDE9084500199C
:100840006941BDE8F04DA2E770B521F000430343D4
:100850000CD0C1F30A550024D5EB040564EB040366
:10086000D617AD1AB34102DB0020014670BD201837
:1008700041EB025170BDC1F30A52C1F3130140F2C2
:10088000FF3341F480119A4202DA0020014670479A
:1008900040F233439A42A2F2334202DC5242FFF763
:1008A0001DBFFFF70CBF0000064C074D06E0E068D7
:1008B00040F0010394E8070098471034AC42F6D3A7
:1008C000FFF73AFC6C8E00088C8E00082DE9F04D85
:1008D00000231A461B1A8A4103DB00200146BDE8AB
:1008E000F08DC1F30A52C1F3130141F480154FF0AA
:1008F000000BD10702D100186D41521E002704469B
:1009000040F2FF11384601EB620A3E46804602463D
:1009100000204FF48011FFF7E1FEC2197141BB18AE
:1009200046EB0100B4EB030C75EB000C04D3E41AA6
:1009300065EB000517460E46241908F101006D41CC
:1009400080463428E3DDF91946EB0600091BA8416F
:1009500003D24FF0FF32134601E0002213461BEB97
:10096000070046EB0A51BDE8F04DFFF710BF21B17B
:10097000826842F00102826003E0826822F0010294
:100980008260704710B504461248844208D10121A4
:10099000401501F09FFC0021601501F09BFC17E061
:1009A0000D48844208D10121001501F093FC00217B
:1009B000201501F08FFC0BE00848844208D101218A
:1009C000C80301F087FC00214FF4004001F082FCD5
:1009D00010BD00000024014000280140003C0140FF
:1009E000014600208A6802F004020AB1012000E0FA
:1009F000002070470146C86C80B270470246002054
:100A000013680B400BB1012000E000207047014645
:100A100000208A6802F008020AB1012000E00020EC
:100A20007047000030B502460020002350680F4C8C
:100A300020400D790C6844EA0524204350609068FA
:100A40000B4C2040D1E902542C434D7944EA450433
:100A500020439060D06A20F470000C7C641EE4B2E5
:100A6000234340EA0350D06230BD0000FFFEF0FF98
:100A7000FDF7F1FFF0B504460D4600200021092DD9
:100A800011DDE068A5F10A0606EB4607072606FA1F
:100A900007F18843A5F10A0606EB460603FA06F1BC
:100AA0000843E0600CE0206905EB4507072606FADD
:100AB00007F1884305EB450603FA06F10843206178
:100AC000072A0FDA606B561E06EB86071F2606FA0A
:100AD00007F18843561E06EB860605FA06F1084321
:100AE000606322E00D2A0FDA206BD61F06EB860723
:100AF0001F2606FA07F18843D61F06EB860605FA7D
:100B000006F10843206310E0E06AA2F10D0606EB4F
:100B100086071F2606FA07F18843A2F10D0606EBA9
:100B2000860605FA06F10843E062F0BD816841F0EF
:100B300008018160704721B1826842F4A00282609E
:100B400003E0826822F4A00282607047816841F06D
:100B5000040181607047000000B587B001214FF4A7
:100B6000057001F0A7FB4FF4004001F077FBE32094
:100B7000ADF8040000208DF8070001A9214800F01D
:100B8000DFFE0320ADF8040000208DF8070001A966
:100B90001D4800F0D5FE3F20ADF8040000208DF880
:100BA000070001A9194800F0CBFE1948FFF7EAFE3B
:100BB000002002908DF80C008DF80D004FF460209D
:100BC0000490002005900D208DF8180002A910480F
:100BD000FFF728FF01210E48FFF7C9FE0C48FFF779
:100BE000A5FF00BF0A48FFF712FF0028FAD1084806
:100BF000FFF7ACFF00BF0648FFF7F2FE0028FAD16E
:100C000007B000BD00080140000C01400010014089
:100C10000024014010B5A2B0802200212E48FFF729
:100C2000BBFA2EA22FA12C4803F08EFC2A48FFF716
:100C3000D7FA36490860802200213548FFF7ACFA20
:100C400034A326A236A1324803F07EFC3048FFF7D9
:100C5000C7FA354908608022002102A8FFF79CFAF4
:100C60002CA01EA31DA231A1009002A803F06CFCD1
:100C700002A8FFF7B5FA0446202035A33D4A2146D5
:100C8000009002A806F0D0F93A48FFF7A9FA3A49CD
:100C90000860802200213948FFF77EFA1DA238A1A2
:100CA000364803F051FC40F25B703F49086008464B
:100CB000324902683DA006F02FF9074940A006F02E
:100CC0002BF9134942A006F027F92A4944A006F05F
:100CD00023F922B010BD0000C37F00207465737437
:100CE0003031000025737C7365637572656D6F64C8
:100CF000653D332C7369676E6D6574686F643D681C
:100D00006D6163736861317C000000003800002071
:100D10004380002061315865704650674671780005
:100D200025732625730000003C000020636C696574
:100D30006E74496425736465766963654E616D659B
:100D4000257370726F647563744B65792573000049
:100D50003139383038383333303135386535373319
:100D6000346363363937363066383634643839613F
:100D700000000000C38000204000002043810020CC
:100D800025732E696F742D61732D6D7174742E63CC
:100D90006E2D7368616E676861692E616C69797523
:100DA0006E63732E636F6D0044000020B7FE20CE8B
:100DB000F120C6F7A3BA25733A25640D0A00000096
:100DC000BFCDBBA7B6CB4944A3BA25730D0A00001B
:100DD000D3C320BBA720C3FBA3BA25730D0A000011
:100DE000C3DC20202020C2EBA3BA25730D0A00002B
:100DF00010B5012001F07EFA002001F07BFA10BD51
:100E000008B501460020009003480090009808446F
:100E100000900098008808BD006C004008B50022D2
:100E20000092044A0092009A02440092009A1160D3
:100E300008BD0000006C00407047000070B505461A
:100E40000C462246294615480068801CFFF792F997
:100E50002046E11704EB1161090A104A126811706B
:100E6000E11704EB11610912A4EB01210B4A12688E
:100E70005170002109480268A01C115407480068FD
:100E800000F57A7005490860084600680449096859
:100E9000884202D103480149086070BD2C0000203F
:100EA000340000208360002010B50024154800683D
:100EB00020F47060134908600846006840F4006040
:100EC000086004E0601CC4B2012000F08CF90E48F8
:100ED000006808B1C82CF5DBC82C01DB012010BD6F
:100EE000002404E0601CC4B2012000F07CF9064834
:100EF000006808B9F02CF5DBF02C01DB0120EEE7EF
:100F00000020ECE7000C0140088121422DE9FC5F44
:100F100000BF00F04DF88246BAF1000F23DACAF1A3
:100F200000000FFA80FA0A209AFBF0F100FB11ABE7
:100F30005846FFF7FCFA1C4A1C4BCDE90001FFF7AD
:100F40000CFA06460F460A209AFBF0FB5846FFF7BC
:100F5000EEFA804632463B46FFF758F904460D4606
:100F600085F000451CE00A209AFBF0F100FB11AB74
:100F70005846FFF7DCFA06460B4A0C4BFFF7EDF933
:100F8000804689460A209AFBF0F63046FFF7CFFAF2
:100F900042464B46CDE90001FFF738F904460D46BD
:100FA00020462946BDE8FC9F9A9999999999B93F9D
:100FB0002DE9F84F00F0CAF800F0A6F8FFF774FF2B
:100FC000CC2000F0CFF8BE2000F0CCF800F08AF87A
:100FD000834600F087F80446072C08DDE043C4B2DE
:100FE0006FEA0B0000F0FF0B4FF0000A01E04FF03A
:100FF000010AA1464FEA09200FFA80F909EB0B001C
:101000000FFA80F94846FFF789FA0090FFF7CCFA0B
:1010100007460022084BFFF7A0F90546FFF7A5FA9F
:101020000FFA80F9BAF1000F02D04846BDE8F88FF8
:10103000C9F1000000B2F9E70000E43F08B5012162
:10104000082001F037F90420ADF8000010208DF8D9
:10105000030003208DF802006946064800F070FC8A
:101060000421044800F000FD00F04EF8FFF71CFFDB
:1010700008BD0000000C014010B51748006820F4BE
:101080007060154908600846006840F440700860C8
:10109000002012490860022000F0A5F80120104944
:1010A000C1F888010C48006820F470600A490860A3
:1010B0000846006840F4006008600C2000F093F8D7
:1010C00006488038006808B1012400E0002432207E
:1010D00000F089F8204610BD000C014088812142B3
:1010E0000080214270B50026012508E0FFF7C4FF0B
:1010F0000446E00140EA6600C6B2681CC5B2082D8D
:10110000F4DD304670BD000010B50D48006820F4D5
:1011100070600B4908600846006840F44070086041
:1011200000200849086040F2EE2000F05CF8012041
:101130000549C1F888010F2000F055F810BD0000E6
:10114000000C0140888121420080214210B5FFF748
:10115000DBFFFFF7A9FECC2000F004F8442000F0EC
:1011600001F810BD70B504461848006820F470609E
:10117000164908600846006840F440700860012580
:1011800020E004F0010664106EB1002010490860F0
:10119000022000F028F801200E49C1F888013C2007
:1011A00000F021F80CE00020094908603C2000F024
:1011B0001AF801200749C1F88801022000F013F84D
:1011C000681CC5B2082DDCDD70BD0000000C0140BC
:1011D0008881214200802142704710B56FF00400E1
:1011E00001F0DAFD10BD014601EBC1024FF0E02332
:1011F0005A6100229A611A46126942F001021A618C
:1012000000BF4FF0E022106900F001021AB100F4B3
:101210008032002AF5D04FF0E022126922F001025C
:101220004FF0E0231A61704710B5BEB04FF48060F4
:1012300000F07EFA00B30A2003F0DEFF4FF4806175
:101240005C4800F008FC30B901205B4908715BA0E4
:1012500005F062FE0CE04FF48061564800F0FBFBA5
:10126000012805D100205449087156A005F054FE0C
:101270004FF4806000F056FA4FF4006000F058FA26
:1012800000B30A2003F0B8FF4FF40061494800F0B2
:10129000E2FB30B90120484948714CA005F03CFE02
:1012A0000CE04FF48061434800F0D5FB012805D1E4
:1012B00000204149487147A005F02EFE4FF4006020
:1012C00000F030FA4FF4805000F032FA00B30A20F8
:1012D00003F092FF4FF48051364800F0BCFB30B968
:1012E0000120354988713DA005F016FE0CE04FF451
:1012F0008051304800F0AFFB012805D100202E4975
:10130000887138A005F008FE4FF4805000F00AFA0A
:101310004FF4005000F00CFA00B30A2003F06CFF09
:101320004FF40051234800F096FB30B901202249C8
:10133000C8712AA005F0F0FD0CE04FF400511D48E3
:1013400000F089FB012805D100201B49C87125A0A8
:1013500005F0E2FD4FF4005000F0E4F91648C079C2
:1013600015498979144A5279134B1B79CDE9023218
:10137000CDE904101048C0780F498978CDE90010F4
:101380000D484378027819A107A803F0DDF807AAF1
:101390001B490CA803F0D8F80CA805F0BDFD0CA85B
:1013A000FEF71EFF044622460CA916A000F048FED8
:1013B0003EB010BD001001406E00002031306B0DBA
:1013C0000A0000003130630D0A00000031316B0D5E
:1013D0000A0000003131630D0A00000031326B0D4C
:1013E0000A0000003132630D0A0000002564256404
:1013F00025642564256425642564256400000000B7
:10140000E88D00082F7379732F613158657046504D
:10141000674671782F7465737430312F7468696E04
:10142000672F6576656E742F70726F706572747950
:101430002F706F737400000010B5BEB0402000F034
:1014400077F9E8B10A2003F0D7FE4021594800F0AF
:1014500002FB30B901205849087058A005F05CFD26
:101460000BE04021534800F0F6FA012805D1002096
:101470005149087053A005F04FFD402000F052F98B
:10148000802000F055F9E8B10A2003F0B5FE802174
:10149000484800F0E0FA30B90120474948704BA0B5
:1014A00005F03AFD0BE08021424800F0D4FA012813
:1014B00005D100204049487045A005F02DFD802051
:1014C00000F030F94FF4807000F032F900B30A20D8
:1014D00003F092FE4FF48071364800F0BCFA30B948
:1014E0000120354988703CA005F016FD0CE04FF452
:1014F0008071304800F0AFFA012805D100202E4954
:10150000887036A005F008FD4FF4807000F00AF9ED
:101510004FF4007000F00CF900B30A2003F06CFEE9
:101520004FF40071234800F096FA30B901202249A7
:10153000C8702CA005F0F0FC0CE04FF400711D48C1
:1015400000F089FA012805D100201B49C87027A0A6
:1015500005F0E2FC4FF4007000F0E4F81648C079A2
:1015600015498979144A5279134B1B79CDE9023216
:10157000CDE904101048C0780F498978CDE90010F2
:101580000D48437802781BA107A802F0DDFF07AAE7
:101590001D490CA802F0D8FF0CA805F0BDFC0CA852
:1015A000FEF71EFE044622460CA918A000F048FDD6
:1015B0003EB010BD001001406E000020366B0D0AD9
:1015C0000000000036630D0A00000000370D0A001D
:1015D00037630D0A00000000380D0A0038630D0A59
:1015E00000000000396B0D0A0000000039630D0A8D
:1015F00000000000256425642564256425642564B5
:101600002564256400000000E88D00082F737973BD
:101610002F61315865704650674671782F74657335
:101620007430312F7468696E672F6576656E742F1C
:1016300070726F70657274792F706F737400000030
:101640000EB50121084600F035FE0621022000F00B
:1016500057F94020019000208DF8080010208DF8E7
:10166000090001208DF80A0001A800F075F8072193
:10167000022000F045F98020019001A800F06CF8EC
:101680000821022000F03CF94FF48070019001A87D
:1016900000F062F80921022000F032F94FF40070E6
:1016A000019001A800F058F80A21022000F028F962
:1016B0004FF48060019001A800F04EF80B21022049
:1016C00000F01EF94FF40060019001A800F044F80A
:1016D0000C21022000F014F94FF48050019001A871
:1016E00000F03AF80D21022000F00AF94FF4005002
:1016F000019001A800F030F817208DF800000220BA
:101700008DF8010003208DF8020001208DF8030000
:10171000684600F059FD28208DF80000684600F06A
:1017200053FD0EBD014908607047000014040140DC
:10173000014600200022074B1B6803EA0102054B0B
:1017400014331B680B4013B10AB1012000E00020E4
:101750007047000000040140002123498279002ADB
:101760003AD00A46126803689A430B461A600A1D6B
:10177000126803689A430B1D1A60027911440A68C3
:1017800003681A430A60184A0832126803689A43C9
:10179000154B08331A601A1D126803689A43124BDE
:1017A0000C331A604279102A0ED11A1F126803688E
:1017B0001A430D4B08331A601A1D126803681A4346
:1017C000094B0C331A600DE00749427911440A684D
:1017D00003681A430A6005E0027911440A68036845
:1017E0009A430A60704700000004014030B5044687
:1017F00004254FF4302000F06FF80546042D17D172
:101800000C48006940F002000A490861084644613A
:10181000006940F0400008614FF4302000F05CF8AF
:1018200005460448006941F6FD7108400149086118
:10183000284630BD0020024004200B49C96801F051
:10184000010109B101200EE00749C96801F0040156
:1018500009B1022007E00449C96801F0100109B18B
:10186000032000E004207047002002400348006984
:1018700040F08000014908617047000000200240EC
:1018800070B504460D460426F00200F025F8064621
:10189000042E11D10948006940F001000749086190
:1018A0002580F00200F018F806460448006941F669
:1018B000FE71084001490861304670BD00200240B9
:1018C0000248034948600348486070472301674560
:1018D00000200240AB89EFCD00B502460423FFF79C
:1018E000ABFF034603E0FFF7A7FF0346521E012BA1
:1018F00001D1002AF7D102B90523184600BD000026
:1019000030B500228B071C0F0F2303FA04F20B4B98
:101910008C1053F824309343084C8D1044F8253034
:1019200023468C1053F824308C07240F00FA04F45B
:101930002343024C8D1044F8253030BD080001408F
:101940002DE9F04102460025002600200023002456
:10195000002791F803C00CF00F0591F803C00CF0BC
:10196000100CBCF1000F03D091F802C04CEA050541
:1019700091F800C0BCF1000F31D0146800202BE0BA
:101980004FF0010C0CFA00F3B1F800C00CEA0306AA
:101990009E4220D183004FF00F0C0CFA03F7BC439A
:1019A00005FA03FC4CEA040491F803C0BCF1280FCB
:1019B00006D14FF0010C0CFA00FCC2F814C00AE08A
:1019C00091F803C0BCF1480F05D14FF0010C0CFA9F
:1019D00000FCC2F810C0401C0828D1D31460B1F834
:1019E00000C0BCF1FF0F34DD546800202EE000F190
:1019F000080C4FF0010808FA0CF3B1F800C00CEA2B
:101A000003069E4221D183004FF00F0C0CFA03F71E
:101A1000BC4305FA03FC4CEA040491F803C0BCF192
:101A2000280F05D100F1080C08FA0CF8C2F8148050
:101A300091F803C0BCF1480F07D100F1080C4FF03A
:101A4000010808FA0CF8C2F81080401C0828CED310
:101A50005460BDE8F0810246002093680B400BB152
:101A6000012000E000207047016170470AB1016168
:101A700000E041617047000010B5044607230122D1
:101A800021460948FEF7F6FF01210748FFF753F802
:101A900000BF02210448FEF7B1FF0028F9D0024838
:101AA000FEF7A8FF10BD000000240140704701466A
:101AB000CA1701EB92729210A1EB820292B96420D4
:101AC00091FBF0F200FB121050B94FF4C87091FB7B
:101AD000F0F200FB121008B9012070470020FCE76B
:101AE0000120FAE70020F8E708B501211C2000F0EA
:101AF000E1FB4FF2F030ADF8000010208DF803004C
:101B000003208DF8020069460F48FFF719FF4FF4D4
:101B10008070ADF8000010208DF8030003208DF8D0
:101B2000020069460948FFF70BFF4FF47F50ADF8FC
:101B3000000048208DF8030003208DF8020069465C
:101B40000348FFF7FDFE08BD000C014000080140FE
:101B50000010014013481449086008460068134902
:101B60000860134813490860134814490860084680
:101B70000068134908601348134908601348144962
:101B80000860084600681349086013481349086054
:101B9000002013490870134908701349087013494D
:101BA0000870704703220020140000201800002055
:101BB0005B3D00201C00002043410020200000204D
:101BC000240000209B5C002028000020836000206F
:101BD0002C00002030000020DB7B0020340000209F
:101BE000550000205700002056000020540000201F
:101BF00010B52C4800682C490968884240D02A4812
:101C0000006828490860084600682849884204D1CD
:101C100001F57A602349086023E0224801682448DE
:101C2000814204D100F57A601E49086019E01D4820
:101C300001682048814204D100F57A6019490860A2
:101C40000FE018480068A0F57A7016490860084649
:101C50000068A0F57A70086008460068A0F57A7000
:101C60000860114804680F4800680F49086000F0D8
:101C700047F8002110A000F059FA0B48046008E072
:101C800000F03EF800210CA000F050FA17A005F07B
:101C900043F9002017490870174908701749087060
:101CA00010BD00002400002020000020434100203F
:101CB0002B450020134900202F7379732F61315871
:101CC00065704650674671782F7465737430312F94
:101CD0007468696E672F736572766963652F7072B9
:101CE0006F70657274792F73657400000D0A31315D
:101CF000310D0A005700002056000020540000203B
:101D000070B501207A4908600A207A4908607A484B
:101D10000068001D794909680844801C78490968F1
:101D2000084478490860734800680968441810201E
:101D30007549087000BF2046E11704EB5161C911D5
:101D4000A4EBC115E11704EB5161CC11002C01DDAE
:101D500045F080056C48664A1268855464480068FE
:101D6000401C63490860002CE5DC0021664A60489D
:101D70000068115404215E480068401C11544D2134
:101D80005B480068801C1154512159480068C01CF0
:101D90001154542156480068001D115454480068DD
:101DA000401D1154042152480068801D1154C22165
:101DB0004F480068C01D115400214D48006808308C
:101DC000115464214A480068093011544A4908688E
:101DD000C11700EB1161C1F307224B4B444909685D
:101DE0000A315A5444490868C11700EB11610912BD
:101DF000A0EB0121CAB23E4909680B315A541A4678
:101E00003B4909680C3150183B490A683F49FEF7C5
:101E1000B1F93A490868C11700EB1161C1F3072213
:101E2000334909680C31344B1B681944364B5A54FA
:101E300032490868C11700EB11610912A0EB0121BA
:101E4000CAB22B4909680D312B4B1B6819442E4B24
:101E50005A54274909680E31274A126811441A4614
:101E6000881826490A682A49FEF784F9244908682F
:101E7000C11700EB1161C1F307221D4909680E313A
:101E80001D4B1B6819441D4B1B6819441E4B5A54AB
:101E90001B490868C11700EB11610912A0EB012171
:101EA000CAB2134909680F31134B1B681944134B0D
:101EB0001B681944144B5A540D49096810310E4AD5
:101EC000126811440D4A126811441A4688180C49C8
:101ED0000A681049FEF74EF905480068054A12687D
:101EE0001044084A12688118074801F02BFC70BDA5
:101EF000480000204C000020380000203C0000205A
:101F00004000002050000020C3810020C37F00203B
:101F100043800020C38000202DE9F04FADF57F7D88
:101F2000804698F8011098F8000001EB0020FE9020
:101F300008F1020700208146054606468346012433
:101F40004FF0010A00BF0BF1010B00BF281917F871
:101F5000009009F07F0000FB0A664FEACA1A641C71
:101F600009F080000028F1D1301905443119FE989C
:101F7000401AFE900124A2460026FE980028E2D1D5
:101F8000594621A004F0C8FF00200546064600BFC0
:101F900000BFFA9030E000BF281917F8009009F050
:101FA0007F0000FB0A664FEACA1A641C09F0800031
:101FB0000028F1D1601C2844395C6019385C01EBC1
:101FC0000020801CFD90FD98301AFC902919FD9886
:101FD0000844FB90FB9839186846FC9AFEF7CAF84B
:101FE0006846FC99FEF72AFF301905440124A246F1
:101FF0000026FA98401CFA90FA985845CBDB0DF56C
:102000007F7DBDE8F08F0000B1BEB4CEBDD3CAD590
:10201000C1CB2564B8F6CDC6CBCDCAFDBEDD0D0A59
:102020000000000010B5C02004490870002048706E
:102030000221024801F086FB10BD0000C381002090
:102040002DE9F047054688461646012033490860C9
:102050002846FEF7C5F8801C314908603148066003
:10206000084600682F490968441830202E49087036
:1020700000BF2046E11704EB5161C911A4EBC11761
:10208000E11704EB5161CC11002C01DD47F0800712
:102090002548224A1268875420480068401C1F497E
:1020A0000860002CE5DC2846FEF79AF8C0F307210B
:1020B0001D4A1A48006811542846FEF791F8C1B22B
:1020C000194A16480068401C11542846FEF788F843
:1020D0008146154A11490968891C50184A46294603
:1020E000FEF748F82846FEF77BF80C490968891C7A
:1020F00008440D4900EB0109324641464846FEF7C7
:1021000039F806480068064A12681044054A126801
:102110008118054801F016FBBDE8F0874800002053
:102120004C00002050000020C381002070B5044600
:102130000D4602201F4908601F4908602046FEF72F
:102140004FF8C01C1D49086082201D4908701A48BC
:1021500000781A49097808441949487000208870A5
:102160000120C8702046FEF73BF8000A14490871A8
:102170002046FEF735F8124948712046FEF730F840
:102180000646324621460E48801DFDF7F3FF2046E5
:10219000FEF726F8801D0A490D5406480068064AD5
:1021A00012681044054A12688118054801F0CAFAFD
:1021B00070BD0000480000204C00002050000020AE
:1021C000C38100207047704770B5002100230F22A3
:1021D000C47804B3154C246804F4E064C4F5E064E6
:1021E000210AC1F10403CA40447804FA03F1847857
:1021F0001440214309010E4C0678A155047804F0DF
:102200001F050124AC4005786D11AD0005F1E025F6
:10221000C5F8004109E0047804F01F050124AC4032
:10222000044D0678761145F8264070BD0CED00E0AF
:1022300000E400E080E100E002490143024A11604D
:10224000704700000000FA050CED00E0014908624B
:102250007047000000000E42704700000146002059
:10226000034A506820F44040084350607047000023
:102270000010024029B1064AD2690243044BDA61D8
:1022800004E0034AD2698243014BDA6170470000DF
:102290000010024029B1064A12690243044B1A6138
:1022A00004E0034A12698243014B1A61704700003F
:1022B0000010024029B1064A92690243044B9A6118
:1022C00004E0034A92698243014B9A61704700001F
:1022D0000010024029B1064AD2680243044BDA607A
:1022E00004E0034AD2688243014BDA607047000081
:1022F000001002400149086070470000400442425B
:1023000030B500210022002400232D4D6D6805F01A
:102310000C0121B1042905D0082923D105E0294D5C
:10232000056022E0274D05601FE0254D6D6805F42E
:102330007012234D6D6805F48034022505EB92423E
:102340001CB9214D554305600BE01D4D6D6805F42A
:1023500000351DB11C4D5543056002E0194D554334
:10236000056002E0174D056000BF00BF144D6D68A9
:1023700005F0F0010909154D6B5C0568DD4045600D
:102380000F4D6D6805F4E061090A104D6B5C4568FE
:10239000DD4085600A4D6D6805F46051C90A0B4D3A
:1023A0006B5C4568DD40C560054D6D6805F44041D6
:1023B000890B074D6B5CC568B5FBF3F5056130BD56
:1023C0000010024000127A0000093D005A0000206F
:1023D0006A00002010B501460022002300204A11A7
:1023E000012A02D1094C236806E0022A02D1074CD7
:1023F000236A01E0054C636A01F01F020124944046
:102400001C400CB1012000E0002010BD0010024073
:1024100000210B4A11700A4A203A82F82010012844
:1024200002D0042808D103E00121054A117004E01C
:102430000521034A117000E000BF00BF7047000093
:102440002010024001490860704700003C044242ED
:102450000249096A0143014A1162704700100240B3
:10246000024909888143014A1180704704280040CD
:102470000348008840F010000149088070470000C0
:1024800004280040034800884FF6EF7108400149D6
:10249000088070470428004070B5002600240025FD
:1024A00000F07AF806463848B6FBF0F43748008862
:1024B000A0423CD035490C8040F2B27510E028466D
:1024C000FFF7F5FA40B1B4F5B77F02D3A4F5B774BE
:1024D00004E0681C85B206E0A4F26D14681C85B2A5
:1024E000B4F5B67FEBD800BF29488580002516E0FB
:1024F00027498888FFF7DBFA30B1012D04D11D2C64
:1025000001D31D3C09E00CE02248405DA04203D805
:102510002048405D241A00E003E0681C85B21C2CB2
:10252000E6D200BF681C1A498871601CC871164841
:10253000B6FBF0F100FB11644FF46160B4FBF0F006
:10254000134908704FF46160B4FBF0F100FB1140D7
:102550003C21B0FBF1F00E4948704FF46160B4FBD0
:10256000F0F100FB11403C21B0FBF1F201FB120045
:10257000074988700B46DA799979988800F028F82D
:1025800003490872002070BD8051010058000020EE
:10259000AC8D0020D88B0008002103480188001F63
:1025A000008841EA004070471C2800400146002096
:1025B000064A12880A40D0B2044A121F12880A4002
:1025C00012B108B1012000E000207047042800404B
:1025D000F0B503460C461546642093FBF0F0C6B2F6
:1025E000642093FBF0F700FB1730C1B2132E02DD1D
:1025F00001F16400C1B20846CF1701EB977701EBF8
:10260000A707BAB2072092FBF0F700FB172082B2AF
:102610005719601EDFF82CC01CF80000384482B245
:10262000CF1701EB9777BF10A1EB87071FB9032CDA
:1026300001DA501E82B2072092FBF0F700FB172050
:10264000C0B2F0BDCC8B00082DE9FE43002400BFD2
:1026500000BF0120FFF7AAFF00287DD0FFF71CFF75
:1026600000BFD1E004EBC400794901EB8000408C4D
:10267000012872D177A004F04FFC04EBC401744A26
:1026800002EB8101C989774A514304EBC402704BC4
:1026900003EB8202128A43F609535A4301EB82127A
:1026A00004EBC4016A4B03EB8101498A40F27123B8
:1026B000594302EB011104EBC402654B03EB8202A8
:1026C000928A02EBC20303EB021201EB820104EBDC
:1026D000C4025F4B03EB8202D28A8818FDF727FF02
:1026E00005460E46604989795E4A51435E4AD27971
:1026F00043F609535A4301EB82125B49097840F2D1
:102700007123594302EB0111574A527802EBC2037D
:1027100003EB021201EB8201534A92788818FDF70D
:1027200006FF074688462A46334650A004F0F4FBCD
:102730003A46434651A004F0EFFB3A46434628464A
:102740003146FDF745FF22D8022004EBC401404A80
:1027500002EB8101488401E059E018E004EBC40079
:10276000114601EB8000008C04EBC40102EB8101F7
:10277000C98BC1EB011100EB8100444921F8140021
:10278000084630F81420214641A004F0C5FB04EBB4
:10279000C4002F4901EB8000408C022832D143480D
:1027A00050F83420214642A004F0B6FB3F4850F8D0
:1027B000340038B13D4850F83400401E3B4941F8E0
:1027C00034001FE0394800EBC4004068374941F845
:1027D000340004EBC4001E4901EB8000008C04EBC4
:1027E000C4011B4A02EB8101C98BC1EB011100EB53
:1027F0008100264921F81400084630F8141037A04B
:1028000004F08AFB601CC4B2082CFFF62BAF022038
:10281000FFF7CCFEA0B10220FFF722FEFFF73CFE3F
:1028200011488078104949780F4A1278CDE9002183
:1028300002900D48C379827981882CA004F06CFB4A
:102840000520FFF70DFE00F063F9BDE8FE830000F0
:10285000C88D00207274632D2D2D2D2D2D2D2D2D25
:102860000D0A000000E1F505AC8D0020C9E8B6A80E
:10287000D6B53A256C660D0A00000000B5B1C7B0A8
:10288000D6B53A256C660D0A00000000B88D002010
:1028900050554D505F5345545F54494D3A696E64ED
:1028A00065783A25642D2D2D25640000E88E0020E2
:1028B00050554D505F5345545F416C61726D546982
:1028C0006D5F696E74657276616C3A696E64657885
:1028D0003A25642D2D2D25640D0A000050554D50CC
:1028E0005F5345545F54494D3A256400416C617211
:1028F0006D2054696D653A25642D25642D2564206D
:1029000025643A25643A25640A00000029B1064A84
:1029100012880243044B1A8004E0034A128882435F
:10292000014B1A8070470000002800401CB50024AD
:1029300001214FF0C050FFF79DFC0120FFF786FCFE
:102940000420FEF75DFA45F25001884240D0FEF7C0
:102950004FFA0120FFF75CFD04E0601CC4B20A20BE
:1029600002F04AFC4120FFF735FD08B9FA2CF4DBF0
:10297000FA2C01DB01201CBD4FF48070FFF768FDCD
:102980000120FFF75FFD00F0C3F800F0CBF8012154
:102990000846FFF7BBFF00F0BBF8FFF769FD47F6FD
:1029A000FF7000F0A5F800F0B3F837202A211123BA
:1029B0000E22CDE90010012140F2DF7000F026F870
:1029C000FFF760FD45F250010420FEF727FA07E00B
:1029D00000F0A8F801210846FFF798FF00F098F8EA
:1029E00000F004F8FFF758FD0020C4E708B5032005
:1029F0008DF8000000208DF801008DF80200012004
:102A00008DF803006846FFF7DFFB08BD2DE9F05F96
:102A100006460F4690469946DDE90AAB002440F28F
:102A2000B270864203DB40F63300864202DD0120AD
:102A3000BDE8F09F40F2B2750AE02846FFF737F88C
:102A400010B12048044401E01F480444681C85B2CA
:102A5000B542F2DB781EC7B2002510E01B48405D8E
:102A600040F2A321484304EBC0143046FFF71FF89F
:102A700018B1012D01D116480444681C85B2BD422D
:102A8000ECDBA8F1010040F2A321484304EBC014A1
:102A9000C9EB4910C0EB092004EB0014CAEB0A1083
:102AA00004EB80045C4401214FF0C050FFF7E2FBCF
:102AB0000120FFF7CBFB204600F00CF800F028F8CF
:102AC0000020B5E70085E2018033E101D88B0008E2
:102AD0008051010000B50246FFF7CAFC100C034903
:102AE0000880091D0A80FFF7CDFC00BD18280040B2
:102AF00000B50246FFF7BCFCC2F30340034908805F
:102B0000091D0A80FFF7BEFC00BD00000828004038
:102B100000BF0348008800F020000028F9D070476B
:102B200004280040074800884FF6F771084005491F
:102B3000088000BF0348008800F008000028F9D092
:102B4000704700000428004030B503460C46154687
:102B5000002207E0184600F008F824F812009B1C39
:102B6000501C82B2AA42F5DB30BD0146088870478E
:102B70002DE9F05F80468A461746B8F1006F02D310
:102B80003348804501D3BDE8F09FFEF799FEA8F1D8
:102B9000006B4FEADB25CBF34909C9F58064A742F6
:102BA00000DC3C464DE04FF0006101EBC5204A14CB
:102BB0002849FFF7C9FF00260BE009EB060025496D
:102BC00031F810004FF6FF71884200D003E0701C0E
:102BD00086B2A642F1DB00BFA6421BDA4FF00061CD
:102BE00001EBC520FEF702FE002608E03AF81600C9
:102BF00006EB0901174A22F81100701C86B2A642A2
:102C0000F4DB4FF0006101EBC5204A14114900F0DC
:102C100023F804E022465146404600F01DF8A74242
:102C200000D10FE06D1C4FF000090AEB440AA044EC
:102C3000381B87B2B7F5806F02DD4FF4806400E087
:102C40003C46B0E700BFFEF711FE00BF9BE7000067
:102C500000000808AC8500202DE9F04105460E462D
:102C60001746002407E036F814102846FEF708FE41
:102C7000AD1C601C84B2BC42F5DBBDE8F08170473E
:102C8000012080F3138800BF00BF0748006800F4EC
:102C9000E06006490843001D03490860BFF3408F08
:102CA00000BF00BFFEE700000CED00E00000FA05E9
:102CB00010B500F001F810BD0CB500200190009097
:102CC0003348006840F480303149086000BF304824
:102CD000006800F4003000900198401C01900098BA
:102CE00018B90198B0F5A06FF1D12948006800F437
:102CF000003010B10120009001E000200090009809
:102D0000012843D12348006840F0100021490860A1
:102D10000846006820F0030008600846006840F09C
:102D2000020008601A48406819494860084640682F
:102D300048600846406840F4806048600846406843
:102D400020F47C1048600846406840F4E810486071
:102D50000846006840F08070086000BF0C480068BA
:102D600000F000700028F9D00948406820F0030006
:102D7000074948600846406840F00200486000BFCC
:102D80000348406800F00C000828F9D10CBD000091
:102D90000010024000200240042808D14FF0E0213A
:102DA000096941F004014FF0E022116107E04FF0A2
:102DB000E021096921F004014FF0E0221161704720
:102DC0007047000010B51348006840F00100114939
:102DD000086008464068104908400E4948600846A7
:102DE00000680E4908400B4908600846006820F456
:102DF000802008600846406820F4FE0048604FF4D8
:102E00001F008860FFF754FF4FF00060044908601E
:102E100010BD0000001002400000FFF8FFFFF6FEAA
:102E200008ED00E01FB54FF4A060FFF705FA01219F
:102E30000846FFF71FFA4FF0804000F01FFA42F2F9
:102E40000F70ADF8080048F69F40ADF80400002070
:102E5000ADF80600ADF80A0001A94FF0804000F07F
:102E60001DFB0121880700F0F9F9012211469007A6
:102E700000F009FB0121880700F0F3F91C208DF810
:102E8000000002208DF8010001208DF802008DF86D
:102E900003006846FFF798F91FBD10B501218807A8
:102EA00000F0E0FA28B100F04BFB0121880700F0A8
:102EB000D5F910BD1FB54FF4A060FFF7BDF9012192
:102EC0000220FFF7D7F9184800F0D8F944F61F6040
:102ED000ADF8080041F61F40ADF804000020ADF841
:102EE0000600ADF80A0001A90F4800F0D7FA012149
:102EF0000D4800F0B3F9012211460B4800F0C3FA67
:102F00000121094800F0ADF91D208DF800000120D5
:102F10008DF8010000208DF8020001208DF80300DB
:102F20006846FFF751F91FBD000400401FB54FF47C
:102F3000A060FFF781F901210220FFF79BF91848F3
:102F400000F09CF94EF65F20ADF8080048F69F406F
:102F5000ADF804000020ADF80600ADF80A0001A9A4
:102F60000F4800F09BFA01210D4800F077F901228B
:102F700011460B4800F087FA0121094800F071F969
:102F80001D208DF8000002208DF8010001208DF831
:102F900002008DF803006846FFF716F91FBD000018
:102FA0000004004010B50121174800F05BFA48B357
:102FB0001648007806281BD2DFE800F003060B0C49
:102FC0000D10FFF72FF813E0FFF774FFFFF72AF853
:102FD0000EE000BF00BFFFF725F809E000200C4914
:102FE0000870FFF74DFE0021074800F03AF900BFD6
:102FF00000BF06480078401C0449087001210248BF
:1030000000F02CF910BD0000000400405400002026
:103010005500002010B501211F4800F023FA0028B8
:1030200039D01E4801681EA003F076FF1B482049D6
:10303000026820480068801CFDF79CF8174800884B
:10304000000A1C4909680870144800781949096881
:1030500048701848006800F57A70164908600846FC
:10306000006815490968884202D11448114908606E
:1030700000200A4908600021114800F00DFA0021E3
:10308000054800F0EEF80021034800F005FA0121A0
:10309000014800F0E3F810BD0008004004000020E3
:1030A000636F756E7465723A25640D0A0000000046
:1030B000A0010020140000201C000020032200209A
:1030C000000400407FB505460C464FF4A060FFF7B2
:1030D000B3F801210420FFF7CDF8ADF80850ADF8A2
:1030E00004400020ADF80600ADF80A0001A9104820
:1030F00000F0D4F901210E4800F0B0F80122114689
:103100000B4800F0C0F90021094800F0AAF81E2081
:103110008DF8000001208DF8010000208DF80200DC
:1031200001208DF803006846FFF74EF87FBD0000D0
:10313000000800401FB54FF4A060FFF77DF80121A3
:103140000820FFF797F8184800F098F842F20F703F
:10315000ADF8080041F61F40ADF804000020ADF8BE
:103160000600ADF80A0001A90F4800F097F9012107
:103170000D4800F073F8012211460B4800F083F966
:103180000121094800F06DF832208DF8000001207F
:103190008DF8010000208DF8020001208DF8030059
:1031A0006846FFF711F81FBD000C004010B5002461
:1031B00001211F4800F056F9002838D000BF30E048
:1031C0001C480088002803DD00201B49086002E03D
:1031D000012019490860174830F81400002816DD4E
:1031E000144830F81420214614A003F095FE11482D
:1031F00030F81400401E0F4921F814000020154932
:10320000095D154A02EB8101C1F8800107E0012048
:103210001049095D104A02EB8101C1F88001601C70
:10322000C4B2082CCCDB0121014800F017F810BD16
:10323000000C0040B88D0020A0012142692D2D25F1
:10324000642D2D2D2D2D2D2D2D646174613A256455
:103250000D0A00000800002000802142CA430282BB
:10326000704721B1028842F00102028004E0028826
:103270004FF6FE731A4002807047000010B50446F6
:103280006848844208D10121C014FFF723F80021C7
:10329000E014FFF71FF8C4E0B4F1804F08D101211A
:1032A0000846FEF7F7FF00210120FEF7F3FFB8E024
:1032B0005D48844208D101210220FEF7EBFF002186
:1032C0000220FEF7E7FFACE05848844208D1012114
:1032D0000420FEF7DFFF00210420FEF7DBFFA0E063
:1032E0005348844208D101210820FEF7D3FF002172
:1032F0000820FEF7CFFF94E04E48844208D1012118
:103300001020FEF7C7FF00211020FEF7C3FF88E062
:103310004948844208D101212020FEF7BBFF00214B
:103320002020FEF7B7FF7CE04448844208D1012109
:103330004014FEF7CFFF00216014FEF7CBFF70E0D2
:103340003F48844209D10121C804FEF7C3FF002190
:103350004FF40020FEF7BEFF63E03A48844209D1F3
:1033600001210805FEF7B6FF00214FF48010FEF79B
:10337000B1FF56E03448844209D101214805FEF7E7
:10338000A9FF00214FF40010FEF7A4FF49E02F48E9
:10339000844208D101214020FEF77CFF002140201B
:1033A000FEF778FF3DE02A48844208D101218020C1
:1033B000FEF770FF00218020FEF76CFF31E025480A
:1033C000844208D101218015FEF764FF0021A01579
:1033D000FEF760FF25E02048844209D1012108045E
:1033E000FEF778FF00214FF48030FEF773FF18E0FE
:1033F0001A48844209D101214804FEF76BFF0021DD
:103400004FF40030FEF766FF0BE01548844208D108
:1034100001218804FEF75EFF00214FF48020FEF7B3
:1034200059FF10BD002C014000040040000800407E
:10343000000C004000100040001400400034014027
:10344000004C014000500140005401400018004071
:10345000001C0040002000400040014000440140AA
:103460000048014030B50246002000230024158AA0
:1034700005EA0103958905EA010413B10CB10120A5
:1034800000E0002030BD1AB183890B43838102E044
:1034900083898B438381704781847047002202882F
:1034A0001D4B98420ED01D4B98420BD0B0F1804F6F
:1034B00008D01B4B984205D01A4B984202D01A4BA9
:1034C000984204D14FF68F731A404B881A43174B1A
:1034D000984207D0164B984204D04FF6FF431A404B
:1034E000CB881A4302808B8883850B8803850A4B1F
:1034F00098420BD0094B984208D00E4B984205D009
:103500000D4B984202D00D4B984201D10B7A0386A5
:103510000123838270470000002C014000340140E9
:103520000004004000080040000C00400010004073
:1035300000140040004001400044014000480140A8
:103540002DE9F047ADF5267D4FF0000A00BF00BF22
:1035500001F0DEFE04460D46FDF7D8FC06460F4698
:1035600096A801F0C5FE32463B4640A0CDE9004595
:1035700003F0D2FC99999898CDE90001DDF85882C2
:10358000424640A0979B03F0C7FC9D999C98CDE9CB
:103590000001DDF86882424641A09B9B03F0BCFC21
:1035A000A199A098CDE90001DDF87882424643A0B8
:1035B0009F9B03F0B1FCA599A498CDE90001DDF82B
:1035C0008882424644A0A39B03F0A6FC4948C079E8
:1035D00048498979474A5279464B1B79CDE90232ED
:1035E000CDE904104348C07842498978CDE90010FC
:1035F00040484378027840A113A800F0A5FF13A823
:10360000CDE90E67CDE910451290A599A498CDE9B2
:103610000C01A399A298CDE90A01A199A098CDE93E
:1036200008019F999E98CDE906019D999C98CDE946
:1036300004019B999A98CDE9020199999898CDE94E
:103640000001DDF858824246304916A8979B00F0E9
:103650007BFF16A8FCF7C4FD8046424616A92CA0A5
:10366000FEF7EEFC0DF5267DBDE8F087CEC2B6C8AC
:10367000A3BA252E32662020B9E2D5D5252E326692
:103680000D0A0000CAAAB6C830A3BA252E32662099
:1036900020CAAAB6C831252E32660D0A00000000E5
:1036A000CAAAB6C832A3BA252E32662020CAAAB644
:1036B000C833252E32660D0A00000000CAAAB6C81B
:1036C00034A3BA252E32662020CAAAB6C835252EC4
:1036D00032660D0A00000000CAAAB6C836A3BA2591
:1036E0002E32662020CAAAB6C837252E32660D0AA9
:1036F000000000006E000020256425642564256418
:10370000256425642564256400000000C08C000841
:103710002F7379732F613158657046506746717801
:103720002F7465737430312F7468696E672F6576F6
:10373000656E742F70726F70657274792F706F730D
:103740007400000070B505460C4622462946134811
:103750000068801CFCF70EFD2046E11704EB1161A8
:10376000090A0E4A12681170E11704EB116109127F
:10377000A4EB0121094A126851700848006800F55D
:103780007A70064908600846006805490968884259
:1037900002D104480149086070BD000020000020EB
:1037A000280000204341002010B540F22551184860
:1037B00000F09CF858B31748007880B91448001DF1
:1037C000008820B31248001D00881349134A12686C
:1037D000885412480068401C1049086017E00C48E3
:1037E000001D00880C490D4A126888540B48006877
:1037F00020B901210A48FFF734FD03E00021084801
:10380000FFF74AFE05480068401C0449086010BDE7
:103810000044004055000020A001002004000020CA
:103820000008004001F40072B2F5007F00D100BF33
:10383000CA430280704721B1828942F400528281DA
:1038400004E082894DF6FF731A40828170470000C0
:1038500010B504462048844209D101218803FEF7AF
:1038600039FD00214FF48040FEF734FD32E01B4863
:10387000844209D101214804FEF70CFD00214FF4D8
:103880000030FEF707FD25E01548844209D10121EB
:103890008804FEF7FFFC00214FF48020FEF7FAFCBD
:1038A00018E01048844209D10121C804FEF7F2FC57
:1038B00000214FF40020FEF7EDFC0BE00A488442A3
:1038C00008D101210805FEF7E5FC00214FF4801026
:1038D000FEF7E0FC10BD000000380140004400404D
:1038E00000480040004C00400050004070B50246C7
:1038F000002400230025002040F66A16B14200D1C2
:1039000000BFC1F3421501F01F03012606FA03F3BD
:10391000012D02D19689334006E0022D02D1168A8C
:10392000334001E0968A33400C12012606FA04F473
:103930001688344013B10CB1012000E0002070BDA6
:10394000F0B50346002400260025002040F66A1743
:10395000B94200D100BF1846C1F3421401F01F065E
:10396000012707FA06F5012C01D10C3004E0022CE6
:1039700001D1103000E014301AB107682F430760FE
:1039800002E00768AF430760F0BD00002DE9F04793
:1039900086B005460E460024A24600BFA146002779
:1039A000B08900B100BF2F462C8A4CF6FF7004404E
:1039B000F08804432C82AC894EF6F3100440B088A2
:1039C00031890843718908430443AC81AC8A4FF6BE
:1039D000FF400440B0890443AC8201A8FEF790FC8C
:1039E0001F48874202D1DDF810A001E0DDF80CA0ED
:1039F000A88900F4004040B10AEBCA0000EB0A10AD
:103A000031684900B0FBF1F807E00AEBCA0000EBAF
:103A10000A1031688900B0FBF1F86420B8FBF0F0BF
:103A200004012009642101FB1089A88900F40040E9
:103A300040B1322000EBC900B0FBF1F000F007000C
:103A4000044308E0322000EB09106421B0FBF1F0E0
:103A500000F00F0004432C8106B0BDE8F0870000A1
:103A6000003801407047000010B586B004460121BF
:103A70008803FEF71FFC01210420FEF71BFC4FF416
:103A80000070ADF8140003208DF8160018208DF892
:103A9000170005A91248FDF753FF4FF48060ADF8F9
:103AA000140004208DF8170005A90D48FDF748FF04
:103AB00001940020ADF80800ADF80A00ADF80C0044
:103AC000ADF810000820ADF80E0001A90548FFF779
:103AD0005DFF01210348FFF7AEFE06B010BD0000F8
:103AE000000801400038014010B586B004464FF48C
:103AF000A060FEF7A1FB01214804FEF7BBFB0121FA
:103B00000420FEF7D7FB2448FFF7A2FE0420ADF8FF
:103B1000140003208DF8160018208DF8170005A951
:103B20001E48FDF70DFF0820ADF8140004208DF8A5
:103B3000170005A91948FDF703FF01940020ADF80F
:103B40000800ADF80A00ADF80C00ADF810000C202C
:103B5000ADF80E0001A91048FFF718FF20210E480C
:103B6000FFF760FE012240F225510B48FFF7E8FE07
:103B700026208DF8000000208DF801008DF802004D
:103B800001208DF803006846FEF71EFB0121024864
:103B9000FFF751FE06B010BD004400400008014090
:103BA00010B503E01DA003F0B7F906E014221EA132
:103BB0001EA000F06BF80028F4D000BF642001F0D4
:103BC0001BFB03E01CA003F0A7F904E0322000F087
:103BD00009FC0028F6D000BF142212A119A000F0A1
:103BE00055F8642001F008FB14220FA11DA000F07D
:103BF0004DF84FF47A7001F0FFFA14220AA11BA0CD
:103C000000F044F8642001F0F7FA142206A11AA08B
:103C100000F03CF8642001F0EFFA10BD63776D6F9F
:103C200064650D0A000000004F4B000041542B4317
:103C3000574D4F44453D3200D6D8C6F4B3C9B9A656
:103C40000D0A000041542B43575341503D22BAEC1A
:103C5000D3EE222C223132333435363738222C360B
:103C60002C34000041542B525354000041542B4338
:103C700049504D55583D310041542B43495053450F
:103C8000525645523D312C333333000070B5054652
:103C90000E46144600201549086040F6FF7114488E
:103CA000FCF781FA294613A003F084F90CE06420A4
:103CB00001F0A2FA31460E48FCF780FA00B107E0A5
:103CC00021460EA003F028F92000A4F10104EED152
:103CD00000BF002C04DA0AA003F01EF9012070BD19
:103CE00009A003F019F90020F9E700000400002002
:103CF000A001002025730D0A0000000025642000AB
:103D0000CAA7B0DC0D0A0000B3C9B9A60D0A0000AD
:103D10002DE9F0419AB059A15948FCF74FFA804675
:103D20000024002500260027B8F1000F7ED055A002
:103D300003F0F2F898E05248005D2428FAD1504987
:103D4000601C085C2428F5D1A01CC4B2601C085C6F
:103D50003038095D303901EB810100EB4100C6B21A
:103D6000A01CC4B231464AA003F0D6F809E02046B0
:103D7000611CCCB242490A5C2846691CCDB201A93B
:103D80000A543000A6F10101CEB2F0D1002228463B
:103D9000691CCDB201A90A54002541A003F0BCF86A
:103DA0003749601C085C3038095D303901EB81010E
:103DB00000EB4100C7B2A01CC4B239463BA003F0DF
:103DC000ABF80AE02046611CCCB22D490A5C2846BB
:103DD000691CCDB20DF136010A543800A7F101017A
:103DE000CFB2EFD100222946681CC5B20DF13600D2
:103DF0004254014632A003F08FF82148005D242888
:103E00002AD1322201A93148FEF7B2FE32220DF149
:103E100036012F48FEF7ACFE4F208DF800004B20F6
:103E20008DF80100082269462A4800E024E0FEF7E8
:103E30009FFE00202849086040F6FF711048FCF7FB
:103E4000B2F901A800F05AFB0DF1360000F056FB64
:103E500001201AB0BDE8F08100201F49086040F63B
:103E6000FF710748FCF79FF92046611CCCB204495A
:103E7000085C00287FF45FAF0020EAE724240000FC
:103E8000A0010020656E746572310D0A000000000B
:103E9000737369646C656E3A25640D0A0000000056
:103EA000737369643A25730D0A00000070617373BF
:103EB000776F72645F6C656E3A25640D0A000000CE
:103EC000706173733A25730D0A0000000003070840
:103ED00000020708000107080400002010B53CA0FC
:103EE00003F01AF8322000F07DFA20B13CA003F074
:103EF00013F8012010BD40A003F00EF841A003F01C
:103F00000BF8322144A000F0BFFA20B145A003F025
:103F100003F80220EEE74AA002F0FEFF4D480078C9
:103F2000002823D14CA002F0F7FF32214FA000F06F
:103F3000ABFA20B151A002F0EFFF0320DAE757A05F
:103F400002F0EAFF5AA002F0E7FF1E2000F0F0F9AD
:103F500048B15CA002F0E0FF082261A16148FEF7D1
:103F600007FE0420C6E760A002F0D6FF63A002F0BF
:103F7000D3FF322165A000F087FA20B167A002F0DC
:103F8000CBFF0820B6E76CA002F0C6FF6EA002F0DF
:103F9000C3FF322171A000F077FA20B172A002F0C5
:103FA000BBFF0920A6E778A002F0B6FF7BA002F0D5
:103FB000B3FF642000F014F920B17DA002F0ACFF43
:103FC0000A2097E781A002F0A7FF002092E70000F7
:103FD000D7BCB1B8B8B4CEBBC4A3BFE90D0A0000CA
:103FE000B8B4CEBBCAA7B0DCA3ACD7BCB1B8D6D8E6
:103FF000C6F40D0A00000000B8B4CEBBB3C9B9A620
:104000000D0A0000D7BCB1B8C9E8D6C3535441C4A7
:10401000A3CABD0D0A00000041542B43574D4F4425
:10402000453D3100C9E8D6C3535441C4A3CABDCAF3
:10403000A7B0DCA3ACD7BCB1B8D6D8C6F40D0A0083
:10404000C9E8D6C3535441C4A3CABDB3C9B9A60D68
:104050000A00000010000020D7BCB1B8C8A1CFFBF7
:10406000D7D4B6AFC1ACBDD30D0A000041542B4329
:10407000574155544F434F4E4E3D3000C8A1CFFBE2
:10408000D7D4B6AFC1ACBDD3CAA7B0DCA3ACD7BC44
:10409000B1B8D6D8C6F40D0A00000000C8A1CFFB05
:1040A000D7D4B6AFC1ACBDD3B3C9B9A60D0A000011
:1040B000D7BCB1B8C1ACBDD3C2B7D3C9C6F70D0A1E
:1040C00000000000C1ACBDD3C2B7D3C9C6F7CAA7B0
:1040D000B0DCA3ACD7BCB1B8D6D8C6F40D0A00008A
:1040E0004545000000010708C1ACBDD3C2B7D3C924
:1040F000C6F7B3C9B9A60D0A00000000D7BCB1B815
:10410000C9E8D6C3CDB8B4AB0D0A000041542B4367
:1041100049504D4F44453D3100000000C9E8D6C329
:10412000CDB8B4ABCAA7B0DCA3ACD7BCB1B8D6D8B5
:10413000C6F40D0A00000000C9E8D6C3CDB8B4AB80
:10414000B3C9B9A60D0A0000D7BCB1B8B9D8B1D56A
:10415000B6E0C2B7C1ACBDD30D0A000041542B4339
:1041600049504D55583D3000B9D8B1D5B6E0C2B729
:10417000C1ACBDD3CAA7B0DCA3ACD7BCB1B8D6D84C
:10418000C6F40D0A00000000B9D8B1D5B6E0C2B738
:10419000C1ACBDD3B3C9B9A60D0A0000D7BCB1B834
:1041A000C1ACBDD3B7FECEF1C6F70D0A00000000CA
:1041B000C1ACBDD3B7FECEF1C6F7CAA7B0DCA3AC85
:1041C000D7BCB1B8D6D8C6F40D0A0000C1ACBDD377
:1041D000B7FECEF1C6F7B3C9B9A60D0A00000000BC
:1041E00010B5044600202D49086040F6FF712C48A8
:1041F000FBF7D9FF2B482C4902682CA002F0DAFE0D
:1042000019E0642000F0F8FF2FA12548FBF7D6FF46
:1042100000B114E02EA12248FBF7D0FF08B1012025
:1042200010BD2DA11E48FBF7C9FF00B107E02146D4
:104230002EA002F071FE2000A4F10104E1D100BF24
:104240002BA002F069FE002C01DC0320E8E729A086
:1042500002F062FE00201149086040F6FF7110482C
:10426000FBF7A1FF2BA002F0A5FE0CE0642000F0FC
:10427000C3FF2CA10A48FBF7A1FF00B107E02146CC
:104280001AA002F049FE2000A4F10104EED100BF03
:10429000002C01DC0420C3E70020C1E7040000205B
:1042A000A0010020440000204381002041542B4302
:1042B000495053544152543D22544350222C2225FC
:1042C00073222C25640D0A00434F4E4E4543540083
:1042D000434C4F5345440000414C52454144592002
:1042E000434F4E4E45435445440000002564200092
:1042F0000D0A0000C1ACBDD3B7FECEF1C6F7B3C9FD
:10430000B9A6A3ACD7BCB1B8BDF8C8EBCDB8B4ABB7
:104310000D0A000041542B43495053454E440D0AA9
:10432000000000000D0A4F4B0D0A0D0A3E00000070
:1043300010B5044600201949086040F6FF7118487E
:10434000FBF731FF174918A002F0E6FD154932319D
:1043500018A002F0E1FD134A3232124918A002F00F
:1043600029FE0DE04FF47A7000F046FF1AA10C48C8
:10437000FBF724FF00B107E0214619A002F0CCFDB5
:104380002000A4F10104EDD100BF09A002F0C4FD9A
:10439000002C01DC012010BD0020FCE704000020FF
:1043A000A00100209F210020636F6E73733A257374
:1043B0000D0A000070617373733A25730D0A0000D3
:1043C00041542B43574A41503D222573222C22252C
:1043D00073220D0A000000000A0D0A4F4B00000076
:1043E0002564200010B50446002210211348FDF773
:1043F0003DFB4FF4FA7000F0FFFE012210210F4840
:10440000FDF734FB0CE0642000F0F6FE0CA10E4832
:10441000FBF7D4FE00B107E021460CA002F07CFDC2
:104420002000A4F10104EED100BF09A002F074FD48
:10443000002C01DC012010BD0020FCE70008014039
:104440007265616479000000A001002025642000ED
:104450000D0A000008B501210420FDF72BFF1020F4
:10446000ADF8000003208DF8020010208DF8030045
:1044700069460448FDF764FA012210210148FDF75E
:10448000F5FA08BD0008014070B505460C4600204D
:104490001349086040F6FF711248FBF784FE294675
:1044A00011A002F087FD0CE0642000F0A5FE10A131
:1044B0000C48FBF783FE00B107E021460DA002F097
:1044C0002BFD2000A4F10104EED100BF0AA002F0F0
:1044D00023FD002C01DC012070BD0020FCE7000062
:1044E00004000020A001002025730D0A0000000038
:1044F0004F4B0000256420000D0A000030B58DB040
:1045000004462046FBF76CFE05462A4608A168468D
:1045100000F01AF814220AA16846FFF7B7FB2146FB
:1045200008A002F047FD642000F066FE0DB030BD2B
:1045300041542B43495053454E443D302C25640093
:104540004F4B0000257300000FB4084B10B504A9B1
:1045500002AA039800F070F9044602A9002000F0B6
:1045600002FD204610BC5DF814FB0000674F0008F8
:1045700037B514460846064B6A46214600F05CF9FA
:1045800004466946002000F0EEFC20463EBD0000D7
:10459000674F0008490050EAC12018BF04204A0DA7
:1045A00018BF40F0010040F2FF72B2EB515F08BF4C
:1045B00040F00200012808BF052070472DE9F041B6
:1045C0004F1E00EBC7010446D1E9000115461E4607
:1045D00037F006020DD02A463346FBF7BEFE7F1E9B
:1045E00004EBC703D3E90023FBF710FE37F0060204
:1045F000F1D1022F25D0042F13D0062F18BFBDE80C
:10460000F0812A463346FBF7A8FED4E90A23FBF7DC
:10461000FDFD2A463346FBF7A0FED4E90823FBF74D
:10462000F5FD2A463346FBF798FED4E90623FBF74F
:10463000EDFD2A463346FBF790FED4E90423FBF751
:10464000E5FD2A463346FBF788FED4E90223FBF753
:10465000DDFD2A463346FBF780FED4E90023BDE8A2
:10466000F041FBF7D3BD000000221346104601497C
:10467000FBF7E5BE0000F03FFBF7C8BD0022134684
:1046800010461146FBF7DBBE40F2013200204FF02E
:10469000E041FCF7D9B80000024A00201107FCF7FE
:1046A000D3B8000001FDFFFF02E008C8121F08C1D7
:1046B000002AFAD170477047002001E001C1121FA3
:1046C000002AFBD1704700000149086070470000D4
:1046D000980000202DE9FF5FDDE90220010DDDF8E3
:1046E00038B0024318D044F61050A1F2FF314143D4
:1046F0000D140F98012820D0A5EB0B00401C5FEA99
:10470000000A4FF00004474EDFF81C91A0465046C7
:1047100016D5CAF1000728E00F98012443A201280A
:1047200008D0002100980F9BC0E90021C0E9024396
:10473000BDE8FF9F6FEA0B01F4E7CBF10000DEE775
:10474000074612E0F80707D022463346404649465E
:10475000FBF703FE8046894622463346104619463B
:10476000FBF7FBFD04460E467F10002FEAD1DDE982
:104770000201BAF1000F42464B4602DAFBF7EDFDAB
:1047800001E0FBF75CFE04460E460022284BFBF7D7
:1047900037FF03D84FF0FF30014607E00022254BDA
:1047A00020463146FBF732FDFCF765F8102409E09E
:1047B000002C0ADB0A220023FBF750FF019B30325A
:1047C0001A55641E50EA0102F2D1641C019AC4F128
:1047D000110314440F9A012A03D0012208430DD17A
:1047E0000AE0084304D000204FF0110B0F9080E73F
:1047F000A3EB0B056D1E0DE05B4504DD4FF00002E1
:1048000005F1010504E003DA4FF00002A5F101050E
:10481000002AECD000980F99C0E90231C0E90045A8
:1048200086E70000000024400000F03F3000000058
:104830000000F0430000E03F2DE9FF4F95B09B469C
:104840008946064600250FE2252877D10024274611
:10485000F84A0121059400E0044316F8013F203B8B
:1048600001FA03F01042F7D130782A2811D06FF006
:104870002F033078A0F13002092A16D8059A44F0A7
:10488000020402EB820203EB42021044761C059004
:10489000EFE759F8042B0592002A03DA504244F45A
:1048A0000054059044F00204761C30782E2816D16E
:1048B00016F8010F44F004042A280DD06FF02F02DF
:1048C0003078A0F13003092B09D807EB870302EBFE
:1048D0004303C718761CF3E759F8047B761C30783D
:1048E0006C280FD006DC4C2817D068280DD06A2819
:1048F00014D104E0742810D07A280FD10DE044F4CC
:1049000000140AE044F4801401E044F44014727886
:10491000824202D104F58014761C761C3078662819
:104920000BD013DC582877D009DC002875D0452837
:10493000F6D04628F4D047281AD19DE118E0632824
:1049400035D0642879D0652812D195E1702873D0CC
:1049500008DC6728F1D069286FD06E280DD06F2849
:1049600006D1B5E073282CD0752875D0782874D07E
:104970005A46179990476D1C75E1C4F302500228FE
:1049800009D003280DD0D9F8001004280DD00D60EF
:1049900009F1040967E1D9F80010EA17C1E90052EA
:1049A000F6E7D9F800100D80F2E70D70F0E719F87E
:1049B000041B8DF8001000208DF80100EA4601204C
:1049C00003E059F804AB4FF0FF3061074FF00001EE
:1049D00002D40DE008F101018846B9420FDA8045A2
:1049E000F8DB1AF808100029F4D108E008F10101F9
:1049F00088468142FADB1AF808100029F6D105989A
:104A00005B46A0EB080721463846179A00F094FA57
:104A1000284400EB080507E04DE029E10DE01AF815
:104A2000010B5A4617999047B8F10108F7D25B4637
:104A300021463846179A13E142E00A220092C4F355
:104A400002524FF0000A022A08D059F804CB032A78
:104A50004FEAEC710AD00DE029E02AE009F10701E4
:104A600021F00702F2E802C1914609E00FFA8CFC3E
:104A70004FEAEC71042A03D14FFA8CFC4FEAEC7137
:104A8000002907DA0A460021DCF1000C61EB020183
:104A90002D2202E0220504D52B228DF804200122CC
:104AA00003E0E20701D02022F7E7904659E00A210F
:104AB00002E010220DE010214FF0000A00910BE0FF
:104AC00010224FF0000A44F004040827009203E08B
:104AD00008224FF0000A0092C4F30252022A05D0C5
:104AE00059F804CB0021032A08D009E009F1070195
:104AF00021F00702F2E802C1914605E01FFA8CFCA2
:104B0000042A01D10CF0FF0C4FF00008220728D531
:104B1000702806D0009B83F0100353EA0A0305D0E7
:104B20000EE040228DF80420012208E05CEA010238
:104B300006D030228DF804208DF805000222904620
:104B4000009B83F0080353EA0A030AD15CEA0102DE
:104B500001D1620705D530228DF804204FF00108FD
:104B60007F1E582804D034A003900EA802900DE0B8
:104B700036A0F9E753466046009AFBF76FFD84467E
:104B80000398825C0298401E029002705CEA010069
:104B9000F0D1029806A9081A00F1200A600702D590
:104BA00024F4803400E00127574502DDA7EB0A001A
:104BB00000E0002000EB0A01009005984144401AF3
:104BC0000590E00306D45B462146179A059800F04D
:104BD000B3F90544002706E001A85A46C05D1799BD
:104BE00090476D1C7F1C4745F6DBE0030CD55B4608
:104BF0002146179A059800F09FF9054404E03020FB
:104C00005A46179990476D1C0099481E009000293C
:104C1000F5DC08E0029802995A460078491C029196
:104C2000179990476D1CBAF10001AAF1010AF1DC55
:104C300065E1000009280100303132333435363760
:104C400038396162636465660000000030313233D8
:104C50003435363738394142434445460000000078
:104C600000F058F90544761C307800287FF4ECAD4C
:104C700019B02846BDE8F08F620700D4062709F175
:104C8000070222F0070CFCE80223E14603F000488B
:104C90005FEA080C02D00FF2702C0DE05FEA045CB2
:104CA00002D50FF2682C07E05FEAC47C02D00FF255
:104CB000602C01E0AFF2700C4FF0FF3823F000439E
:104CC000CDF850C065280CD006DC452809D0462810
:104CD0001DD047283DD13DE0662818D067287ED1F9
:104CE00038E00021112F01DB112000E0781CCDE914
:104CF000000106A90EA8FFF7EDFCDDE90F010E9AF1
:104D000003910021009207F1010A04914DE04FF058
:104D100000400097CDE9011006A90EA8FFF7DAFCC4
:104D2000DDE90F0203920E9B11990022DDF80CA021
:104D30000093049211B9791C00EB010AB7EB0A0049
:104D400004D4C0F1FF3007F1010A0490AAEB070078
:104D5000019044E0012F00DA01270021112F01DD2D
:104D6000112000E03846CDE9000106A90EA8FFF7A2
:104D7000B1FCDDE90F010E9A03910021049100922C
:104D8000BA4621070CD40399514500DA8A46BAF194
:104D9000010F05DD009AAAF10101515C302908D00C
:104DA000B84202DA10F1040F06DA0121CDE9011050
:104DB00015E0AAF10101E9E7002805DC04990144A6
:104DC0000491AAEB000102E0411C514500DD8A4636
:104DD0000499401A401C01904FF0004002902007B7
:104DE00004D40198504501DBCDF8048000208DF8F3
:104DF0004F0002980DF14F07B0F1004F25D02B2046
:104E00000E9002984FF0020800280CDA40420290FF
:104E10002D200E9007E00A210298FBF709FC3031A3
:104E2000029007F8011DB8F10001A8F10108F2DCB9
:104E300002980028EFD1791E0E980870307800F0A3
:104E4000200040F0450007F8020D12A8C01B00F139
:104E500007081498007800B1012000EB0A010198BE
:104E600001EBE07105984144401A401E0590E003B3
:104E700006D45B462146179A059800F05DF8054474
:104E80001498007818B15A46179990476D1CE003A2
:104E900024D55B462146179A059800F04DF8054445
:104EA0001CE00498002807DBDDE90301884203DDEC
:104EB0000098405C179901E0179930205A469047B6
:104EC000049805F10105401C04900198401E0190D2
:104ED00004D12E205A46179990476D1CBAF1000153
:104EE000AAF1010ADDDC05E017F8010B5A46179913
:104EF00090476D1CB8F10001A8F10108F4DC5B4695
:104F00002146179A0598ABE62D0000002B00000003
:104F1000200000002DE9F041044600251E461746FA
:104F2000880404D405E039462020B0476D1C641E77
:104F3000F9D52846BDE8F0812DE9F0410446002569
:104F40001E469046C80301D5302700E0202788047C
:104F500004D505E041463846B0476D1C641EF9D5BE
:104F60002846BDE8F0810A68531C0B60107070473A
:104F700070B504461EE02568A08900F4807020B951
:104F8000A06810B1A068FFF7F3FFA08900F480705B
:104F900028B9206918B10949206909688847206A39
:104FA00018B10649206A09688847204603490968FC
:104FB00088472C46002CDED170BD00008000002008
:104FC00070B505460E46AC6800E024682CB1314649
:104FD000206A00F04FF80028F7D1204670BD00008D
:104FE00010B5282005490968884704461CB12821C6
:104FF0002046FBF7D8F8204610BD00007C000020BA
:1050000010B5044600221146204600F001F810BDFC
:105010002DE9F04780460D4616460024FFF7E0FFD5
:1050200007460020124908600FB9BDE8F0874046E6
:1050300001F042FF81464946384601F09FF8044698
:1050400024B93846FFF794FF0020EEE766B120460A
:1050500001F032FF0446207830B13846FFF788FF70
:10506000034804600020E0E705B12C603846DCE727
:105070007800002070B504460D462CB9AC4201D032
:10508000012070BD0020FCE70DB90120F9E705E023
:10509000207808B90020F4E7641C6D1C2078FBF729
:1050A00063F806462878FBF75FF88642F0D0207850
:1050B000FBF75AF806462878FBF756F8301AE0E76F
:1050C00010B52F48427801782EA001F025FF082264
:1050D0002B493048FDF738FD3C222F492F48FDF77A
:1050E00033FD3C222C4932312D48FDF72DFD2A4954
:1050F00032312CA001F010FF27492DA001F00CFF48
:105100001F48427801781FA001F006FF1C48007874
:105110004F282CD11A4840784B2828D127A001F0DD
:10512000FBFE00212A48FEF79CF800212948FEF7E3
:1051300098F800202849086040F6FF712748FBF7DF
:1051400032F8FCF707FDFEF7C9FEB8B924A001F05C
:10515000E3FE01202749087000201F49086040F63F
:10516000FF711E48FBF71FF8FCF742FD06E0FEF753
:1051700017FD00BFFEF7CCFD0028FBD010BD0000DE
:1051800011000020666C61673A2563202C25630DB1
:105190000A000000000107089F2100200003070803
:1051A00000020708706173733A25730D0A0000004E
:1051B000737369643A25730D0A000000D0E8D2AA1F
:1051C000C1ACBDD3B7FECEF1C6F70D0A000000009A
:1051D000000800400004004004000020A00100205E
:1051E000BDA8C1A2544350C1ACBDD3B3C9B9A60D2B
:1051F0000A0000005500002010B50146B1F5E16F2E
:1052000022D201EBC1034FF47A7463434FF0E024E0
:1052100063610023A36123461B6943F001032361FB
:1052200000BF4FF0E023186900F001031BB100F448
:105230008033002BF5D04FF0E0231B6923F00103EE
:105240004FF0E02423614FE000221FE0274B4FF096
:10525000E02463610023A36123461B6943F001033B
:10526000236100BF4FF0E023186900F001031BB178
:1052700000F48033002BF5D04FF0E0231B6923F0BE
:1052800001034FF0E0242361531CDAB24FF4E163D1
:10529000B1FBF3F39342D9D84FF4E163B1FBF3F4DC
:1052A00003FB141303EBC3034FF47A7463434FF00F
:1052B000E02463610023A36123461B6943F00103DB
:1052C000236100BF4FF0E023186900F001031BB118
:1052D00000F48033002BF5D04FF0E0231B6923F05E
:1052E00001034FF0E024236110BD00004031F700BE
:1052F00070B50546002408E0E11DC8B200F022F8B0
:1053000005EBC40203C2601CC4B2082CF4DB70BD00
:105310002DE9F04100BF0F20FCF7AEFB8046404670
:10532000FBF716F90646054A054BFBF716F8044647
:105330000D4620462946BDE8F081000079E9263176
:1053400008ACCC3F2DE9F05F824600BF40F62469EF
:1053500040F2546B5046FCF78FFB06464E4502DD8B
:10536000002425460FE05E4502DA0024084D0AE0DD
:10537000A9EB0600FBF7DBF807460022054BFBF71D
:105380005EF804460D4620462946BDE8F09F000021
:105390000000594000003440FBF71FFF4FF4E1309C
:1053A000FEF762FB4FF4E130FEF79EFB4FF4E15154
:1053B0004FF49670FDF786FEFCF796FBFCF740F97C
:1053C000FBF7CAFBFDF7B2FA05E0C820FFF714FFB0
:1053D00011A001F0A1FDFBF731FE0028F5D113A0CB
:1053E00001F09AFDFFF736F8FCF7B4FBFBF712FC6F
:1053F000FDF7A0FE0DA001F08FFD0CE00E48007837
:10540000012806D100F01CFB00F0AEF900F07CF999
:1054100001E0FFF755FEF1E7CEC2B6C8B4ABB8D095
:10542000C6F7B3F5CABCBBAF0D0A00007375636362
:105430006573730D0A0000005500002070B5054625
:105440000F48007C20B90E4908688047012070BDD4
:10545000B5F5804F11D269090948C06830F81120AC
:10546000002406E00020064BDB680E1923F8160026
:10547000641C9442F6DB0020E9E70220E7E7000025
:105480008400002000B509494FF48062C8680021FB
:1054900000F03CFB05494FF480428868002100F091
:1054A00035FB01200149087400BD00008400002084
:1054B0002DE9F04106460024A0461A48007C10B9A8
:1054C0001849086880471EB94FF0FF30BDE8F081E9
:1054D000C6F34F1506F01F0008B1681C85B240F2F4
:1054E000FF141AE00F48C06830F8140020B908F122
:1054F00001001FFA80F801E04FF00008A8450BD129
:10550000002705E00748C068E11920F811507F1C0A
:10551000AF42F7D36001D9E7641E002CE2DA4FF006
:10552000FF30D3E7840000200022002106E0074876
:10553000C06830F8110000B1521C491CB1F5007F61
:10554000F5D364205043C0F3472070478400002007
:105550002DE9F05F824600245046FFF751FD834657
:1055600040A15846FFF72CFD814642A15846FFF75F
:1055700027FD074643A15846FFF722FD064644A1F2
:105580005846FFF71DFD8046B9F1000F11D00020ED
:1055900044490870082244A14448FDF7E9FA002074
:1055A0004349086040F6FF714248FAF7FCFDFDF7F9
:1055B00067FB002F2CD03D69284601F0ADFC00248C
:1055C00024E0285D30280ED121463BA001F0A4FC48
:1055D00000203B49095D3B4A02EB8101C1F8800193
:1055E0003949086010E0285D31280DD1214637A0E7
:1055F00001F092FC01203249095D324A02EB81013F
:10560000C1F8800130490860601CC4B2082CD8DBA6
:10561000B8F1000F04D02FA0D8F8101001F07CFCD6
:1056200036B134A0316901F077FC306901F0E0FA5D
:105630005846FFF79DFC4846FFF79AFC3846FFF7AF
:1056400097FC4046FFF794FC3046FFF791FC0020A2
:105650001749086040F6FF711648FAF7A4FDBDE847
:10566000F09F000072657365745F636F6E6E6365B3
:105670007400000073657450756D705374617475B7
:105680007300000073657450756D7054696D00008F
:1056900068756D69646974795F7468726573686F41
:1056A0006C6400005500002045450000000107081B
:1056B00004000020A0010020693A256420B9D80028
:1056C0000800002000802142A0012142693A25649F
:1056D00020BFAA000D0A6A736F6E5F68756D6964FA
:1056E0006974795F7468726573686F6C643A257366
:1056F0000D0A00000D0A50554D505F5345545F543C
:10570000494D3A25640D0A0010B51048006810494B
:105710000968884219D00D480168891C0DA001F064
:10572000FBFB0A480068801CFFF712FF074800686F
:1057300000F57A700549086008460068084909685C
:10574000884202D107480149086010BD300000209E
:105750002C000020C3FCC1EE3A25730D0A000000A6
:10576000340000208360002010B556480068564978
:105770000968884278D055A001F0CEFB51480068F6
:10578000807820283BD14F480068407906282ED2E7
:10579000DFE800F0030A11181F264FA001F0BCFB40
:1057A00001205249087029E051A001F0B5FB00200A
:1057B0005A49087022E05AA001F0AEFB0020574978
:1057C00008701BE062A001F0A7FB0020534908709D
:1057D00014E069A001F0A0FB0020504908700DE022
:1057E00070A001F099FB00204C49087006E075A0FC
:1057F00001F092FB00204949087000BF52E0314897
:105800000068807890281FD12E480068807910B1F8
:10581000012811D100E000BF73A001F07DFB012041
:1058200074490870002074490870FDF77FFBFDF78C
:10583000F9FAFDF785FE06E070A001F06DFB00208F
:105840003649087000BF2DE01E4800688078D028D7
:1058500015D170A001F060FB67480078012804D1E1
:105860000020654908701DE02BE06348007801289E
:1058700018DD002060490870FDF758FB12E0114860
:105880000068807830280DD166A001F045FB0D48F6
:10589000006801F041FB42A001F03EFB09480068AE
:1058A000FCF73AFB0748006800F57A700549086084
:1058B0000846006860490968884202D15F4801498A
:1058C000086010BD1800002014000020BDD3CAD508
:1058D000B5BDCAFDBEDD3A00434F4E4E454354B1FF
:1058E000A8CEC4B3C9B9A60D0A0000005600002016
:1058F000C1ACBDD3D2D1BEDCBEF8A3ACB2BBD6A77F
:10590000B3D6B5C4D0ADD2E9B0E6B1BEA3ACD7BC76
:10591000B1B8D6D8C6F40D0A00000000550000202A
:10592000C1ACBDD3D2D1BEDCBEF8A3ACB2BBBACF42
:10593000B8F1B5C4BFCDBBA7B6CBB1EACAB6B7FB09
:10594000A3ACD7BCB1B8D6D8C6F40D0A000000008D
:10595000C1ACBDD3D2D1BEDCBEF8A3ACB7FECEF194
:10596000B6CBB2BBBFC9D3C3A3ACD7BCB1B8D6D832
:10597000C6F40D0A00000000C1ACBDD3D2D1BEDC1C
:10598000BEF8A3ACCEDED0A7B5C4D3C3BBA7C3FBC0
:10599000BBF2C3DCC2EBA3ACD7BCB1B8D6D8C6F45B
:1059A0000D0A0000C1ACBDD3D2D1BEDCBEF8A3ACA1
:1059B000CEB4CADAC8A8A3ACD7BCB1B8D6D8C6F49E
:1059C0000D0A0000C1ACBDD3D2D1BEDCBEF8A3AC81
:1059D000CEB4D6AAD7B4CCACA3ACD7BCB1B8D6D8C9
:1059E000C6F40D0A00000000B6A9D4C4B3C9B9A614
:1059F0000D0A00005700002054000020B6A9D4C4AE
:105A0000CAA7B0DCA3ACD7BCB1B8D6D8C6F40D0ACF
:105A10000000000050494E47B1A8CEC4BBD8B8B46E
:105A20000D0A0000B7FECEF1C6F7B5C8BCB630CD42
:105A3000C6CBCD0D0A0000001C0000200322002070
:105A400010B5194800681949096888422AD01648D3
:105A50000068807810280CD013480068807882286D
:105A600003D113480078012803D012480078012898
:105A700018D10D48006881780FA001F04DFA0A484E
:105A8000006801F077FA0848006800F57A70064966
:105A90000860084600680C490968884202D10B4832
:105AA0000149086010BD00002400002020000020F3
:105AB0005600002057000020B7A2CBCDCAFDBEDDA6
:105AC0003A307825780D0A00280000204341002054
:105AD00070B5044604B970BD03488068251A28468D
